{
  "contractName": "Coinflip",
  "abi": [
    {
      "anonymous": false,
      "inputs": [
        {
          "indexed": false,
          "internalType": "bool",
          "name": "",
          "type": "bool"
        }
      ],
      "name": "result",
      "type": "event"
    },
    {
      "constant": false,
      "inputs": [],
      "name": "close",
      "outputs": [],
      "payable": false,
      "stateMutability": "nonpayable",
      "type": "function"
    },
    {
      "constant": true,
      "inputs": [],
      "name": "player",
      "outputs": [
        {
          "internalType": "address",
          "name": "",
          "type": "address"
        }
      ],
      "payable": false,
      "stateMutability": "view",
      "type": "function"
    },
    {
      "constant": true,
      "inputs": [],
      "name": "random",
      "outputs": [
        {
          "internalType": "uint256",
          "name": "",
          "type": "uint256"
        }
      ],
      "payable": false,
      "stateMutability": "view",
      "type": "function"
    },
    {
      "constant": false,
      "inputs": [],
      "name": "placeBet",
      "outputs": [
        {
          "internalType": "bool",
          "name": "",
          "type": "bool"
        }
      ],
      "payable": true,
      "stateMutability": "payable",
      "type": "function"
    },
    {
      "constant": true,
      "inputs": [],
      "name": "viewBalance",
      "outputs": [
        {
          "internalType": "uint256",
          "name": "",
          "type": "uint256"
        }
      ],
      "payable": false,
      "stateMutability": "view",
      "type": "function"
    },
    {
      "constant": false,
      "inputs": [],
      "name": "deposit",
      "outputs": [],
      "payable": true,
      "stateMutability": "payable",
      "type": "function"
    },
    {
      "constant": false,
      "inputs": [
        {
          "internalType": "uint256",
          "name": "profit",
          "type": "uint256"
        }
      ],
      "name": "withdraw",
      "outputs": [
        {
          "internalType": "uint256",
          "name": "",
          "type": "uint256"
        }
      ],
      "payable": false,
      "stateMutability": "nonpayable",
      "type": "function"
    }
  ],
  "bytecode": "0x6080604052336000806101000a81548173ffffffffffffffffffffffffffffffffffffffff021916908373ffffffffffffffffffffffffffffffffffffffff1602179055506107f4806100536000396000f3fe6080604052600436106100705760003560e01c806348db5f891161004e57806348db5f89146101065780635ec01e4d1461015d578063d0e30db014610188578063f90f45601461019257610070565b80632e1a7d4d146100755780633ff1e05b146100c457806343d726d6146100ef575b600080fd5b34801561008157600080fd5b506100ae6004803603602081101561009857600080fd5b81019080803590602001909291905050506101b4565b6040518082815260200191505060405180910390f35b3480156100d057600080fd5b506100d96102f5565b6040518082815260200191505060405180910390f35b3480156100fb57600080fd5b506101046103d6565b005b34801561011257600080fd5b5061011b6104b1565b604051808273ffffffffffffffffffffffffffffffffffffffff1673ffffffffffffffffffffffffffffffffffffffff16815260200191505060405180910390f35b34801561016957600080fd5b506101726104d7565b6040518082815260200191505060405180910390f35b6101906104e9565b005b61019a6105ba565b604051808215151515815260200191505060405180910390f35b60008060009054906101000a900473ffffffffffffffffffffffffffffffffffffffff1673ffffffffffffffffffffffffffffffffffffffff163373ffffffffffffffffffffffffffffffffffffffff1614610278576040517f08c379a000000000000000000000000000000000000000000000000000000000815260040180806020018281038252600a8152602001807f41646d696e206f6e6c790000000000000000000000000000000000000000000081525060200191505060405180910390fd5b3073ffffffffffffffffffffffffffffffffffffffff163182111561029c57600080fd5b3373ffffffffffffffffffffffffffffffffffffffff166108fc670de0b6b3a764000084029081150290604051600060405180830381858888f193505050501580156102ec573d6000803e3d6000fd5b50819050919050565b60008060009054906101000a900473ffffffffffffffffffffffffffffffffffffffff1673ffffffffffffffffffffffffffffffffffffffff163373ffffffffffffffffffffffffffffffffffffffff16146103b9576040517f08c379a000000000000000000000000000000000000000000000000000000000815260040180806020018281038252600a8152602001807f41646d696e206f6e6c790000000000000000000000000000000000000000000081525060200191505060405180910390fd5b3073ffffffffffffffffffffffffffffffffffffffff1631905090565b6000809054906101000a900473ffffffffffffffffffffffffffffffffffffffff1673ffffffffffffffffffffffffffffffffffffffff163373ffffffffffffffffffffffffffffffffffffffff1614610498576040517f08c379a000000000000000000000000000000000000000000000000000000000815260040180806020018281038252600a8152602001807f41646d696e206f6e6c790000000000000000000000000000000000000000000081525060200191505060405180910390fd5b3373ffffffffffffffffffffffffffffffffffffffff16ff5b600160009054906101000a900473ffffffffffffffffffffffffffffffffffffffff1681565b6000600242816104e357fe5b06905090565b6000809054906101000a900473ffffffffffffffffffffffffffffffffffffffff1673ffffffffffffffffffffffffffffffffffffffff163373ffffffffffffffffffffffffffffffffffffffff16146105ab576040517f08c379a000000000000000000000000000000000000000000000000000000000815260040180806020018281038252600a8152602001807f41646d696e206f6e6c790000000000000000000000000000000000000000000081525060200191505060405180910390fd5b600034116105b857600080fd5b565b600033600160006101000a81548173ffffffffffffffffffffffffffffffffffffffff021916908373ffffffffffffffffffffffffffffffffffffffff1602179055506000803411610674576040517f08c379a000000000000000000000000000000000000000000000000000000000815260040180806020018281038252600f8152602001807f426574206e6f7420656e7465726564000000000000000000000000000000000081525060200191505060405180910390fd5b60053073ffffffffffffffffffffffffffffffffffffffff16318161069557fe5b0434111561070b576040517f08c379a00000000000000000000000000000000000000000000000000000000081526004018080602001828103825260128152602001807f426574206c696d6974206578636565646564000000000000000000000000000081525060200191505060405180910390fd5b60016107156104d7565b1415610778573373ffffffffffffffffffffffffffffffffffffffff166108fc600a346013028161074257fe5b049081150290604051600060405180830381858888f1935050505015801561076e573d6000803e3d6000fd5b506001905061077d565b600090505b7f30d3b450a8c170d89bf5318a40efd2245a1a1cf1465443b7b1338e09524a4c8481604051808215151515815260200191505060405180910390a1809150509056fea265627a7a723158206db04d1a1d34f8292186d9205590e24c940644ef0452aa7012984ef17627436964736f6c634300050c0032",
  "source": "import \"./Destroyable.sol\";\r\npragma solidity 0.5.12;\r\n\r\ncontract Coinflip is Destroyable{\r\n\r\n    address public player;\r\n    event result(bool);\r\n\r\n    function random () public view returns (uint) {\r\n        return now % 2;\r\n    }\r\n\r\n    function placeBet () public payable returns (bool){\r\n\r\n        player = msg.sender;\r\n        bool win;\r\n        require (msg.value > 0, \"Bet not entered\");\r\n        require (msg.value <= address(this).balance/5, \"Bet limit exceeded\");\r\n\r\n        if (random() == 1){\r\n            msg.sender.transfer(19*(msg.value)/10);\r\n            win = true;\r\n        }\r\n        else {\r\n            win = false;\r\n        }\r\n        emit result(win);\r\n        return win;\r\n    }\r\n\r\n    function viewBalance () public view onlyOwner returns (uint) {\r\n        return address(this).balance;\r\n    }\r\n\r\n    function deposit() public payable onlyOwner {\r\n        require(msg.value > 0);\r\n    }\r\n\r\n    function withdraw (uint profit) public onlyOwner returns (uint){\r\n        require (profit <= address(this).balance);\r\n        msg.sender.transfer(profit*1e18);\r\n        return profit;\r\n    }\r\n}\r\n",
  "sourcePath": "C:/Users/USER/desktop/coinflip/contracts/Coinflip.sol",
  "compiler": {
    "name": "solc",
    "version": "0.5.12+commit.7709ece9.Emscripten.clang"
  },
  "schemaVersion": "3.0.16",
  "updatedAt": "2020-09-15T13:45:54.653Z",
  "devdoc": {
    "methods": {}
  },
  "userdoc": {
    "methods": {}
  }
}